:100000000C943E000C945B000C945B000C945B0021
:100010000C945B000C945B000C945B000C945B00F4
:100020000C945B000C945B000C945B000C945B00E4
:100030000C945B000C94B1010C945B000C945B007D
:100040000C945B000C945B000C945B000C945B00C4
:100050000C945B000C945B000C945B000C945B00B4
:100060000C945B000C945B000C945B000C945B00A4
:100070000C945B000C945B000C945B0011241FBE7D
:10008000CFEFD8E0DEBFCDBF11E0A0E0B1E0E8EEF9
:10009000FAE002C005900D92AE34B107D9F721E025
:1000A000AEE4B1E001C01D92A735B207E1F70E94AE
:1000B0005D000C9472050C9400000E9435010E94B2
:1000C000E5010E944A010E94E8010E9457010E9436
:1000D00072008111F4CF0E943C010E9472008823BB
:1000E000E1F3EDCF96B1892F817090FF05C096B1F5
:1000F000892F827091FD81E008950F931F93CF9314
:10010000DF93CDB7DEB761970FB6F894DEBF0FBEB1
:10011000CDBF80934E010E942C0280914E0182300F
:1001200049F1833009F44BC081116EC060E00E9438
:100130007F0283E091E00E947002809102011F9291
:100140008F9381E191E09F938F938E010F5F1F4FFB
:100150001F930F930E94880261E080E00E947F025B
:10016000C8010E9470020F900F900F900F900F9097
:100170000F9070C060E080E00E947F028EE191E00D
:100180000E947002809101011F928F938BE291E097
:100190009F938F938E010F5F1F4F1F930F930E94AA
:1001A000880261E080E00E947F02C8010E94700224
:1001B0000F900F900F900F900F900F904BC060E03A
:1001C00080E00E947F0289E391E00E9470028091AA
:1001D00000011F928F9385E491E09F938F938E018E
:1001E0000F5F1F4F1F930F930E94880261E080E012
:1001F0000E947F02C8010E9470020F900F900F9022
:100200000F900F900F9026C010924E0160E080E09A
:100210000E947F0283E091E00E94700280910201BF
:100220001F928F9381E191E09F938F938E010F5FD7
:100230001F4F1F930F930E94880261E080E00E948D
:100240007F02C8010E9470020F900F900F900F90D4
:100250000F900F9061960FB6F894DEBF0FBECDBF22
:10026000DF91CF911F910F9108950E9464018091B9
:100270004E010E947D00089580914E018F5F809312
:100280004E01843010F010924E0180914E010E9478
:100290007D00089590910201981741F0809302012A
:1002A00080914E01811102C00E947D0008959091BD
:1002B0000101981741F08093010180914E01823035
:1002C00011F40E947D00089581B1836F81B90E946D
:1002D0003002089522B130E1839FC00111242F70B4
:1002E000822B82B9089582B1816082B9089582B16A
:1002F0008E7F82B9089582B1826082B9089582B1F9
:100300008D7F82B908950F931F9308C08FEC97E0FB
:100310000197F1F700C00000C901B8018B019C01F1
:100320000150110921093109672B682B692B71F7DD
:100330001F910F9108950F931F9306C082E08A9535
:10034000F1F700C0C901B8018B019C0101501109EE
:1003500021093109672B682B692B81F71F910F91B8
:1003600008951F920F920FB60F9211248F939F93AF
:10037000AF93BF9380914F0190915001A091510193
:10038000B09152010196A11DB11D80934F01909330
:100390005001A0935101B093520180915501909169
:1003A0005601892B49F08091550190915601019792
:1003B0009093560180935501BF91AF919F918F917A
:1003C0000F900FBE0F901F901895809154010895C3
:1003D0008091530108950E947B0161E070E080E00C
:1003E00090E00E949B010E947F0162E370E080E048
:1003F00090E00E949B0108958F700E946A010E9404
:10040000EB010895CF93DF93C82FD62F662319F001
:100410000E94730102C00E9477018C2F82958F7019
:100420000E94FC018C2F8F700E94FC01D11109C029
:10043000C150C23030F462E070E080E090E00E9491
:100440008301DF91CF91089560E00E940202089538
:1004500061E00E940202089581E00E942402089552
:1004600068E270E080E090E00E9483010E947701E2
:100470000E947F0183E00E94FC0165E070E080E063
:1004800090E00E94830183E00E94FC0166E970E035
:1004900080E090E00E949B0183E00E94FC0166E9FD
:1004A00070E080E090E00E949B0182E00E94FC01ED
:1004B00066E970E080E090E00E949B0188E20E9483
:1004C000240288E00E9424020E942C0286E00E94FE
:1004D00024028CE00E94240208950E9428020895BC
:1004E000CF93DF93EC01892B21F406C021960E9463
:1004F0006D0288818111FACFDF91CF91089580310B
:1005000008F08FE06111805C80680E9424020895E9
:10051000AEE0B0E0EEE8F2E00C9449050D891E89EA
:1005200086E08C831A8309838FEF9FE79E838D83F8
:10053000AE01475E5F4F6F89788DCE0101960E94B4
:10054000AA02EF81F885E00FF11F10822E96E4E0F9
:100550000C946505ABE0B0E0E0EBF2E00C943B05F9
:100560006C017B018A01FC0117821682838181FF65
:10057000CCC1CE0101963C01F6019381F70193FDB8
:10058000859193FF81917F01882309F4BAC1853257
:1005900039F493FD859193FF81917F01853229F490
:1005A000B60190E00E94A104E7CF912C212C312CC0
:1005B000FFE1F315D8F08B3279F038F4803279F01E
:1005C0008332A1F4232D20611DC08D3261F0803370
:1005D00069F4232D216016C0832D8260382EE32D0F
:1005E000E4603E2E2AC0F32DF8601DC037FC2DC0FC
:1005F00020ED280F2A3040F08E32B9F436FC81C14C
:10060000232D2064322E19C036FE06C08AE0989E43
:10061000200D1124922E11C0EAE02E9E200D1124EF
:10062000222EF32DF0623F2E08C08C3621F4832D4C
:100630008068382E02C0883641F4F70193FD859119
:1006400093FF81917F018111B3CF982F9F7D9554A6
:10065000933028F40C5F1F4F9FE399830DC08336BE
:1006600031F0833771F0833509F059C021C0F801AA
:10067000808189830E5F1F4F88248394912C5301BE
:1006800013C02801F2E04F0E511CF801A080B18088
:1006900036FE03C0692D70E002C06FEF7FEFC50129
:1006A0000E9496044C018201F32DFF773F2E16C065
:1006B000280122E0420E511CF801A080B18036FED4
:1006C00003C0692D70E002C06FEF7FEFC5010E948B
:1006D0008B044C01F32DF0683F2E820133FC1BC0CC
:1006E000822D90E088169906B0F4B60180E290E081
:1006F0000E94A1042A94F4CFF50137FC859137FEBE
:1007000081915F01B60190E00E94A10421102A941A
:1007100021E0821A91088114910471F7E8C08436AF
:1007200011F0893641F5F80137FE07C0608171810B
:10073000828193810C5F1F4F08C060817181072EF9
:10074000000C880B990B0E5F1F4FF32DFF763F2E89
:1007500097FF09C090958095709561957F4F8F4F59
:100760009F4FF0683F2E2AE030E0A3010E94DD0495
:10077000882E861845C0853731F4232D2F7EB22E62
:100780002AE030E025C0932D997FB92E8F36C1F035
:1007900018F4883579F0B5C0803719F0883721F022
:1007A000B0C0E92FE061BE2EB4FE0DC0FB2DF46099
:1007B000BF2E09C034FE0AC0292F2660B22E06C003
:1007C00028E030E005C020E130E002C020E132E066
:1007D000F801B7FE07C060817181828193810C5F4F
:1007E0001F4F06C06081718180E090E00E5F1F4F57
:1007F000A3010E94DD04882E8618FB2DFF773F2E73
:1008000036FE0DC0232D2E7FA22E891458F434FEFF
:100810000BC032FC09C0832D8E7EA82E05C0B82CDB
:10082000A32C03C0B82C01C0B92CA4FE0FC0FE013C
:10083000E80DF11D8081803321F49A2D997EA92E37
:1008400009C0A2FE06C0B394B39404C08A2D867872
:1008500009F0B394A3FC11C0A0FE06C0B21488F442
:10086000280C922C9B180EC0B21460F4B60180E2E2
:1008700090E00E94A104B394F7CFB21418F42B189F
:1008800002C0982C212CA4FE10C0B60180E390E099
:100890000E94A104A2FE17C0A1FC03C088E790E05B
:1008A00002C088E590E0B6010CC08A2D867859F028
:1008B000A1FE02C08BE201C080E2A7FC8DE2B6017E
:1008C00090E00E94A104891438F4B60180E390E01E
:1008D0000E94A1049A94F7CF8A94F301E80DF11DC8
:1008E0008081B60190E00E94A1048110F5CF222002
:1008F00009F442CEB60180E290E00E94A1042A945D
:10090000F6CFF6018681978102C08FEF9FEF2B967D
:10091000E2E10C945705FC01059061507040011014
:10092000D8F7809590958E0F9F1F0895FC01615018
:10093000704001900110D8F7809590958E0F9F1F01
:1009400008950F931F93CF93DF93FB01238121FD24
:1009500003C08FEF9FEF2CC022FF16C04681578146
:10096000248135814217530744F4A081B1819D0150
:100970002F5F3F4F318320838C93268137812F5FF8
:100980003F4F3783268314C08B01EC01FB010084A9
:10099000F185E02D0995892BE1F6D80116968D9108
:1009A0009C911797019617969C938E931697CE015C
:1009B000DF91CF911F910F910895FA01AA27283056
:1009C00051F1203181F1E8946F936E7F6E5F7F4F1C
:1009D0008F4F9F4FAF4FB1E03ED0B4E03CD0670F98
:1009E000781F891F9A1FA11D680F791F8A1F911DEB
:1009F000A11D6A0F711D811D911DA11D20D009F43B
:100A000068943F912AE0269F11243019305D31937C
:100A1000DEF6CF010895462F4770405D4193B3E065
:100A20000FD0C9F7F6CF462F4F70405D4A3318F00C
:100A3000495D31FD4052419302D0A9F7EACFB4E0BD
:100A4000A6959795879577956795BA95C9F7009775
:100A50006105710508959B01AC010A2E0694579516
:100A6000479537952795BA95C9F7620F731F841F6D
:100A7000951FA01D08952F923F924F925F926F9203
:100A80007F928F929F92AF92BF92CF92DF92EF921E
:100A9000FF920F931F93CF93DF93CDB7DEB7CA1B9F
:100AA000DB0B0FB6F894DEBF0FBECDBF09942A88CA
:100AB000398848885F846E847D848C849B84AA8472
:100AC000B984C884DF80EE80FD800C811B81AA81FF
:100AD000B981CE0FD11D0FB6F894DEBF0FBECDBFCA
:080AE000ED010895F894FFCF29
:100AE800100201202054454D50455241545552455D
:100AF800002020202020202530327520430020208F
:100B0800202048554D494449545900202020202090
:100B180020253032752025250020205345542054A7
:0E0B2800454D50200020202020202025750063
:00000001FF
