:100000000C943E000C945B000C945B000C945B0021
:100010000C945B000C945B000C945B000C945B00F4
:100020000C945B000C945B000C945B000C945B00E4
:100030000C945B000C946C030C945B000C945B00C0
:100040000C945B000C945B000C945B000C945B00C4
:100050000C945B000C945B000C945B000C945B00B4
:100060000C945B000C945B000C945B000C945B00A4
:100070000C945B000C945B000C945B0011241FBE7D
:10008000CFEFD8E0DEBFCDBF11E0A0E0B1E0E2E805
:10009000FEE002C005900D92A035B107D9F721E02E
:1000A000A0E5B1E001C01D92AE35B207E1F70E94B4
:1000B0005D000C943F070C9400000E94FA010E941E
:1000C000E8000E94D5000E94F7000E94AF030E9442
:1000D0000F020E94B5030E941C020E947A000E9437
:1000E000CA008111F0CF0E9401020E94CA00882339
:1000F000E1F3E9CF809101018130A1F040F182303C
:1001000019F0833091F108950E94CA00811141C015
:1001100081E08093010180ED97E090935D018093F1
:100120005C0108950E94CA00813041F482E080930E
:10013000010110925D0110925C01089580915C01B3
:1001400090915D01892B29F51092010108950E947B
:10015000CA008130F1F483E08093010180ED97E0E3
:1001600090935D0180935C0108950E94CA00811103
:1001700007C01092010110925D0110925C01089578
:1001800080915C0190915D01892B19F482E080934C
:100190000101089596B1892F817090FF05C096B135
:1001A000892F827091FD81E0089587B18E7F87B994
:1001B00087B18D7F87B985B18D7F85B988B1816021
:1001C00088B988B1826088B985B1826085B908959F
:1001D0000E94CC020E94A0036093510170935201CF
:1001E0008093530190935401109250010895CF923F
:1001F000DF92EF92FF920F931F93CF93DF9300D084
:10020000CDB7DEB70E94A0030091510110915201B9
:1002100020915301309154016B017C01C01AD10A25
:10022000E20AF30A40EDC41647E0D406E104F10403
:10023000E8F06093510170935201809353019093C1
:100240005401BE016E5F7F4FCE0101960E94D30222
:10025000882351F089810E94B2038A810E94AC03F5
:1002600081E08093500102C0109250010F900F90D6
:10027000DF91CF911F910F91FF90EF90DF90CF9082
:1002800008950F931F93CF93DF93CDB7DEB7619798
:100290000FB6F894DEBF0FBECDBF809355010E940C
:1002A000F90380915501813051F120F0823009F439
:1002B0004BC06FC060E080E00E944C0484E091E09D
:1002C0000E943D04809103011F928F9382E191E08F
:1002D0009F938F938E010F5F1F4F1F930F930E9469
:1002E000550461E080E00E944C04C8010E943D0476
:1002F0000F900F900F900F900F900F9070C060E0D4
:1003000080E00E944C048FE191E00E943D048091C6
:1003100002011F928F938CE291E09F938F938E0145
:100320000F5F1F4F1F930F930E94550461E080E001
:100330000E944C04C8010E943D040F900F900F9042
:100340000F900F900F904BC060E080E00E944C0433
:100350008AE391E00E943D04809100011F928F93F7
:1003600086E491E09F938F938E010F5F1F4F1F9341
:100370000F930E94550461E080E00E944C04C80184
:100380000E943D040F900F900F900F900F900F90D0
:1003900026C01092550160E080E00E944C0484E089
:1003A00091E00E943D04809103011F928F9382E1AE
:1003B00091E09F938F938E010F5F1F4F1F930F93B9
:1003C0000E94550461E080E00E944C04C8010E9434
:1003D0003D040F900F900F900F900F900F9061962B
:1003E0000FB6F894DEBF0FBECDBFDF91CF911F9146
:1003F0000F9108950E941F03809155010E944101B1
:100400000895809155018F5F80935501833010F0DE
:1004100010925501809155010E94410108959091DB
:100420000301981741F080930301809155018111D8
:1004300002C00E944101089590910201981741F075
:100440008093020180915501813011F40E94410195
:10045000089587B1806487B9089587B18F7B87B984
:1004600088B1806488B9089588B18F7B88B9089570
:1004700088B1806488B9089586B186FB882780F9A1
:1004800008951F93CF93DF93182FEB0107C0209798
:1004900059F0219782E08A95F1F700C00E943C0252
:1004A0008113F5CF81E001C080E0DF91CF911F91F2
:1004B0000895CF93DF93EC0164E670E081E00E9441
:1004C0004102882391F08AE68A95F1F700C00E94E4
:1004D0003C0291E0811101C090E0988364E670E0F5
:1004E00080E00E944102811181E0DF91CF91089567
:1004F000EF92FF921F93CF93DF931F92CDB7DEB79A
:100500007C01FC01108210E00DC0CE0101960E941A
:100510005902882351F0F7018081880F9981892B36
:1005200080831F5F183088F381E00F90DF91CF91B7
:100530001F91FF90EF9008950E9429020E943402BB
:100540008FE39CE90197F1F700C000000E94380298
:1005500090E59A95F1F70E942D0281E0089568ECEC
:1005600070E080E00E944102882381F066E970E03B
:1005700081E00E944102882359F066E970E080E042
:100580000E944102811106C083E0089581E0089530
:1005900082E0089584E0089587B18F7B87B988B1A0
:1005A000806488B90895CF92DF92EF92FF920F9303
:1005B0001F93CF93DF9300D000D01F92CDB7DEB74B
:1005C0006C017B010E949C02882329F10E94AF02EA
:1005D000182F843011F500E00BC081E090E08C0F03
:1005E0009D1F800F911D0E9478028823C1F00F5F2C
:1005F000053098F339818A812B819C81830F820F8A
:10060000890F9D8189130CC0F60130838B81F7011E
:10061000808310E005C011E003C012E001C013E0C8
:10062000812F0F900F900F900F900F90DF91CF912F
:100630001F910F91FF90EF90DF90CF90089581B1BF
:10064000836F81B90E94FD03089522B130E1839F39
:10065000C00111242F70822B82B9089582B181606C
:1006600082B9089582B18E7F82B9089582B1826085
:1006700082B9089582B18D7F82B908950F931F9337
:1006800008C08FEC97E00197F1F700C00000C901A6
:10069000B8018B019C010150110921093109672B17
:1006A000682B692B71F71F910F9108950F931F937A
:1006B00006C082E08A95F1F700C0C901B8018B013C
:1006C0009C010150110921093109672B682B692B05
:1006D00081F71F910F9108951F920F920FB60F92FD
:1006E00011248F939F93AF93BF9380915601909164
:1006F0005701A0915801B09159010196A11DB11D5A
:100700008093560190935701A0935801B0935901DB
:1007100080915C0190915D01892B49F080915C0191
:1007200090915D01019790935D0180935C01BF9171
:10073000AF919F918F910F900FBE0F901F901895C2
:100740002FB7F8946091560170915701809158012C
:10075000909159012FBF089580935B010895809176
:100760005B01089580935A01089580915A0108957C
:100770000E94360361E070E080E090E00E94560342
:100780000E943A0362E370E080E090E00E9456032A
:1007900008958F700E9425030E94B8030895CF9397
:1007A000DF93C82FD62F662319F00E942E0302C0B4
:1007B0000E9432038C2F82958F700E94C9038C2F68
:1007C0008F700E94C903D11109C0C150C23030F4EA
:1007D00062E070E080E090E00E943E03DF91CF9104
:1007E000089560E00E94CF03089561E00E94CF0366
:1007F000089581E00E94F103089568E270E080E0CE
:1008000090E00E943E030E9432030E943A0383E07C
:100810000E94C90365E070E080E090E00E943E0322
:1008200083E00E94C90366E970E080E090E00E94E6
:10083000560383E00E94C90366E970E080E090E01F
:100840000E94560382E00E94C90366E970E080E0DE
:1008500090E00E94560388E20E94F10388E00E9423
:10086000F1030E94F90386E00E94F1038CE00E94EC
:10087000F10308950E94F5030895CF93DF93EC01EF
:10088000892B21F406C021960E943A0488818111A7
:10089000FACFDF91CF910895803108F08FE0611198
:1008A000805C80680E94F1030895AEE0B0E0EBE563
:1008B000F4E00C9416070D891E8986E08C831A8358
:1008C00009838FEF9FE79E838D83AE01475E5F4F65
:1008D0006F89788DCE0101960E947704EF81F885AB
:1008E000E00FF11F10822E96E4E00C943207ABE08B
:1008F000B0E0EDE7F4E00C9408076C017B018A019D
:10090000FC0117821682838181FFCCC1CE01019642
:100910003C01F6019381F70193FD859193FF81914D
:100920007F01882309F4BAC1853239F493FD85919A
:1009300093FF81917F01853229F4B60190E00E94F6
:100940006E06E7CF912C212C312CFFE1F315D8F066
:100950008B3279F038F4803279F08332A1F4232D90
:1009600020611DC08D3261F0803369F4232D216038
:1009700016C0832D8260382EE32DE4603E2E2AC0FF
:10098000F32DF8601DC037FC2DC020ED280F2A3054
:1009900040F08E32B9F436FC81C1232D2064322E12
:1009A00019C036FE06C08AE0989E200D1124922EB2
:1009B00011C0EAE02E9E200D1124222EF32DF062AC
:1009C0003F2E08C08C3621F4832D8068382E02C05B
:1009D000883641F4F70193FD859193FF81917F0162
:1009E0008111B3CF982F9F7D9554933028F40C5FDD
:1009F0001F4F9FE399830DC0833631F0833771F029
:100A0000833509F059C021C0F801808189830E5FC8
:100A10001F4F88248394912C530113C02801F2E0C6
:100A20004F0E511CF801A080B18036FE03C0692D25
:100A300070E002C06FEF7FEFC5010E9463064C01BA
:100A40008201F32DFF773F2E16C0280122E0420ECF
:100A5000511CF801A080B18036FE03C0692D70E002
:100A600002C06FEF7FEFC5010E9458064C01F32DC5
:100A7000F0683F2E820133FC1BC0822D90E0881667
:100A80009906B0F4B60180E290E00E946E062A94C6
:100A9000F4CFF50137FC859137FE81915F01B601F6
:100AA00090E00E946E0621102A9421E0821A91089B
:100AB0008114910471F7E8C0843611F0893641F54C
:100AC000F80137FE07C060817181828193810C5FDC
:100AD0001F4F08C060817181072E000C880B990B95
:100AE0000E5F1F4FF32DFF763F2E97FF09C09095A5
:100AF0008095709561957F4F8F4F9F4FF0683F2E87
:100B00002AE030E0A3010E94AA06882E861845C07C
:100B1000853731F4232D2F7EB22E2AE030E025C018
:100B2000932D997FB92E8F36C1F018F4883579F05E
:100B3000B5C0803719F0883721F0B0C0E92FE061E7
:100B4000BE2EB4FE0DC0FB2DF460BF2E09C034FED6
:100B50000AC0292F2660B22E06C028E030E005C06A
:100B600020E130E002C020E132E0F801B7FE07C02A
:100B700060817181828193810C5F1F4F06C060810B
:100B8000718180E090E00E5F1F4FA3010E94AA06D2
:100B9000882E8618FB2DFF773F2E36FE0DC0232DA5
:100BA0002E7FA22E891458F434FE0BC032FC09C0EB
:100BB000832D8E7EA82E05C0B82CA32C03C0B82C84
:100BC00001C0B92CA4FE0FC0FE01E80DF11D80810B
:100BD000803321F49A2D997EA92E09C0A2FE06C069
:100BE000B394B39404C08A2D867809F0B394A3FC1F
:100BF00011C0A0FE06C0B21488F4280C922C9B18D9
:100C00000EC0B21460F4B60180E290E00E946E065D
:100C1000B394F7CFB21418F42B1802C0982C212CDF
:100C2000A4FE10C0B60180E390E00E946E06A2FE12
:100C300017C0A1FC03C088E790E002C088E590E0FF
:100C4000B6010CC08A2D867859F0A1FE02C08BE255
:100C500001C080E2A7FC8DE2B60190E00E946E0622
:100C6000891438F4B60180E390E00E946E069A94ED
:100C7000F7CF8A94F301E80DF11D8081B60190E071
:100C80000E946E068110F5CF222009F442CEB601F3
:100C900080E290E00E946E062A94F6CFF6018681EB
:100CA000978102C08FEF9FEF2B96E2E10C9424070F
:100CB000FC010590615070400110D8F78095909527
:100CC0008E0F9F1F0895FC0161507040019001102C
:100CD000D8F7809590958E0F9F1F08950F931F93BF
:100CE000CF93DF93FB01238121FD03C08FEF9FEFA3
:100CF0002CC022FF16C046815781248135814217BE
:100D0000530744F4A081B1819D012F5F3F4F318390
:100D100020838C93268137812F5F3F4F3783268333
:100D200014C08B01EC01FB010084F185E02D0995D5
:100D3000892BE1F6D80116968D919C911797019613
:100D400017969C938E931697CE01DF91CF911F91AA
:100D50000F910895FA01AA27283051F1203181F12D
:100D6000E8946F936E7F6E5F7F4F8F4F9F4FAF4FB3
:100D7000B1E03ED0B4E03CD0670F781F891F9A1FC6
:100D8000A11D680F791F8A1F911DA11D6A0F711D7A
:100D9000811D911DA11D20D009F468943F912AE086
:100DA000269F11243019305D3193DEF6CF0108956E
:100DB000462F4770405D4193B3E00FD0C9F7F6CF9F
:100DC000462F4F70405D4A3318F0495D31FD405267
:100DD000419302D0A9F7EACFB4E0A69597958795FD
:100DE00077956795BA95C9F70097610571050895DC
:100DF0009B01AC010A2E0694579547953795279588
:100E0000BA95C9F7620F731F841F951FA01D08951F
:100E10002F923F924F925F926F927F928F929F920A
:100E2000AF92BF92CF92DF92EF92FF920F931F93F8
:100E3000CF93DF93CDB7DEB7CA1BDB0B0FB6F894A9
:100E4000DEBF0FBECDBF09942A88398848885F84E9
:100E50006E847D848C849B84AA84B984C884DF805A
:100E6000EE80FD800C811B81AA81B981CE0FD11D3E
:100E70000FB6F894DEBF0FBECDBFED010895F89414
:020E8000FFCFA2
:100E820010020103202054454D5045524154555201
:100E920045002020202020202530327520430020CC
:100EA20020202048554D49444954590020202020F3
:100EB200202025303275202525002020534554203E
:100EC20054454D5020002020202020202575000070
:00000001FF
