S00F000042544C5F4156522E73726563EB
S11300000C943E000C945B000C945B000C945B001D
S11300100C945B000C945B000C945B000C945B00F0
S11300200C945B000C945B000C945B000C945B00E0
S11300300C945B000C94B4010C945B000C945B0076
S11300400C945B000C945B000C945B000C945B00C0
S11300500C945B000C945B000C945B000C945B00B0
S11300600C945B000C945B000C945B000C945B00A0
S11300700C945B000C945B000C945B0011241FBE79
S1130080CFEFD8E0DEBFCDBF11E0A0E0B1E0E6EEF7
S1130090FAE002C005900D92A435B107D9F721E02A
S11300A0A4E5B1E001C01D92AD35B207E1F70E94AD
S11300B046010C9471050C9400000F931F93CF9389
S11300C0DF93CDB7DEB761970FB6F894DEBF0FBEEE
S11300D0CDBF809354010E942B0280915401823041
S11300E049F1833009F44BC0811170C060E00E9473
S11300F07E0284E091E00E946F02809103011F92CE
S11301008F9382E191E09F938F938E010F5F1F4F36
S11301101F930F930E94870261E080E00E947E0299
S1130120C8010E946F020F900F900F900F900F90D4
S11301300F9072C060E080E00E947E028FE191E047
S11301400E946F02809102011F928F938CE291E0D2
S11301509F938F938E010F5F1F4F1F930F930E94E6
S1130160870261E080E00E947E02C8010E946F0263
S11301700F900F900F900F900F900F904DC060E074
S113018080E00E947E028AE391E00E946F028091E7
S113019001018F93809100018F938AE491E09F93F2
S11301A08F938E010F5F1F4F1F930F930E9487023F
S11301B061E080E00E947E02C8010E946F020F90FD
S11301C00F900F900F900F900F9026C01092540133
S11301D060E080E00E947E0284E091E00E946F0271
S11301E0809103011F928F9382E191E09F938F93FB
S11301F08E010F5F1F4F1F930F930E94870261E0D0
S113020080E00E947E02C8010E946F020F900F904E
S11302100F900F900F900F9061960FB6F894DEBF79
S11302200FBECDBFDF91CF911F910F9108950E9412
S11302306701809154010E945D00089580915401EA
S11302408F5F80935401843010F010925401809198
S113025054010E945D00089590910301981741F0A4
S11302608093030180915401811102C00E945D00BA
S1130270089590910201981741F0809302018091B2
S11302805401823011F40E945D0008950E94170108
S11302908AB18D7F8AB985B1826085B90E94E401F3
S11302A0D82F0E94E701C82F8D2F0E942C018C2F7C
S11302B00E9439011999ECCF8FE39CE90197F1F77A
S11302C000C000001999E4CF0E941E01E1CF81B162
S11302D0836F81B90E942F02089522B130E1839F78
S11302E0C00111242F70822B82B9089582B18160DC
S11302F082B9089582B18E7F82B9089582B18260F5
S113030082B9089582B18D7F82B908950F931F93A6
S113031008C08FEC97E00197F1F700C00000C90115
S1130320B8018B019C010150110921093109672B86
S1130330682B692B71F71F910F9108950F931F93E9
S113034006C082E08A95F1F700C0C901B8018B01AB
S11303509C010150110921093109672B682B692B74
S113036081F71F910F9108951F920F920FB60F926C
S113037011248F939F93AF93BF93809155019091D4
S11303805601A0915701B09158010196A11DB11DCC
S11303908093550190935601A0935701B09358014F
S11303A080915B0190915C01009729F001979093F3
S11303B05C0180935B01BF91AF919F918F910F90EE
S11303C00FBE0F901F90189580915A010895809147
S11303D0590108950E947E0161E070E080E090E0A0
S11303E00E949E010E94820162E370E080E090E03E
S11303F00E949E0108958F700E946D010E94EA017F
S11304000895CF93DF93C82FD62F662319F00E9447
S1130410760102C00E947A018C2F82958F700E940F
S1130420FB018C2F8F700E94FB01D11109C0C150B8
S1130430C23030F462E070E080E090E00E94860117
S1130440DF91CF91089560E00E940102089561E078
S11304500E940102089581E00E942302089568E247
S113046070E080E090E00E9486010E947A010E9480
S1130470820183E00E94FB0165E070E080E090E08F
S11304800E94860183E00E94FB0166E970E080E03F
S113049090E00E949E0183E00E94FB0166E970E007
S11304A080E090E00E949E0182E00E94FB0166E9E8
S11304B070E080E090E00E949E0188E20E942302A6
S11304C088E00E9423020E942B0286E00E942302FD
S11304D08CE00E94230208950E9427020895CF937E
S11304E0DF93EC01892B21F406C021960E946C0253
S11304F088818111FACFDF91CF910895803108F07E
S11305008FE06111805C80680E9423020895AEE050
S1130510B0E0EDE8F2E00C9448050D891E8986E010
S11305208C831A8309838FEF9FE79E838D83AE01AB
S1130530475E5F4F6F89788DCE0101960E94A902B4
S1130540EF81F885E00FF11F10822E96E4E00C9401
S11305506405ABE0B0E0EFEAF2E00C943A056C011C
S11305607B018A01FC0117821682838181FFCCC141
S1130570CE0101963C01F6019381F70193FD85912B
S113058093FF81917F01882309F4BAC1853239F43C
S113059093FD859193FF81917F01853229F4B60102
S11305A090E00E94A004E7CF912C212C312CFFE194
S11305B0F315D8F08B3279F038F4803279F0833245
S11305C0A1F4232D20611DC08D3261F0803369F4C4
S11305D0232D216016C0832D8260382EE32DE46024
S11305E03E2E2AC0F32DF8601DC037FC2DC020ED2F
S11305F0280F2A3040F08E32B9F436FC81C1232D05
S11306002064322E19C036FE06C08AE0989E200D62
S11306101124922E11C0EAE02E9E200D1124222EC8
S1130620F32DF0623F2E08C08C3621F4832D8068B0
S1130630382E02C0883641F4F70193FD859193FF6B
S113064081917F018111B3CF982F9F7D9554933071
S113065028F40C5F1F4F9FE399830DC0833631F05C
S1130660833771F0833509F059C021C0F8018081C6
S113067089830E5F1F4F88248394912C530113C0E8
S11306802801F2E04F0E511CF801A080B18036FE23
S113069003C0692D70E002C06FEF7FEFC5010E94B7
S11306A095044C018201F32DFF773F2E16C02801DB
S11306B022E0420E511CF801A080B18036FE03C036
S11306C0692D70E002C06FEF7FEFC5010E948A04BC
S11306D04C01F32DF0683F2E820133FC1BC0822DA8
S11306E090E088169906B0F4B60180E290E00E948A
S11306F0A0042A94F4CFF50137FC859137FE81914B
S11307005F01B60190E00E94A00421102A9421E028
S1130710821A91088114910471F7E8C0843611F0AB
S1130720893641F5F80137FE07C060817181828105
S113073093810C5F1F4F08C060817181072E000CEC
S1130740880B990B0E5F1F4FF32DFF763F2E97FFFB
S113075009C090958095709561957F4F8F4F9F4FFD
S1130760F0683F2E2AE030E0A3010E94DC04882ECA
S1130770861845C0853731F4232D2F7EB22E2AE00A
S113078030E025C0932D997FB92E8F36C1F018F42F
S1130790883579F0B5C0803719F0883721F0B0C0BA
S11307A0E92FE061BE2EB4FE0DC0FB2DF460BF2E18
S11307B009C034FE0AC0292F2660B22E06C028E0E4
S11307C030E005C020E130E002C020E132E0F80171
S11307D0B7FE07C060817181828193810C5F1F4FD6
S11307E006C06081718180E090E00E5F1F4FA3011D
S11307F00E94DC04882E8618FB2DFF773F2E36FEE0
S11308000DC0232D2E7FA22E891458F434FE0BC064
S113081032FC09C0832D8E7EA82E05C0B82CA32CD3
S113082003C0B82C01C0B92CA4FE0FC0FE01E80D12
S1130830F11D8081803321F49A2D997EA92E09C05F
S1130840A2FE06C0B394B39404C08A2D867809F03E
S1130850B394A3FC11C0A0FE06C0B21488F4280C03
S1130860922C9B180EC0B21460F4B60180E290E0A2
S11308700E94A004B394F7CFB21418F42B1802C04A
S1130880982C212CA4FE10C0B60180E390E00E94B5
S1130890A004A2FE17C0A1FC03C088E790E002C038
S11308A088E590E0B6010CC08A2D867859F0A1FE47
S11308B002C08BE201C080E2A7FC8DE2B60190E0A9
S11308C00E94A004891438F4B60180E390E00E94E9
S11308D0A0049A94F7CF8A94F301E80DF11D808166
S11308E0B60190E00E94A0048110F5CF222009F403
S11308F042CEB60180E290E00E94A0042A94F6CF92
S1130900F6018681978102C08FEF9FEF2B96E2E17B
S11309100C945605FC010590615070400110D8F705
S1130920809590958E0F9F1F0895FC016150704033
S113093001900110D8F7809590958E0F9F1F089510
S11309400F931F93CF93DF93FB01238121FD03C0FA
S11309508FEF9FEF2CC022FF16C046815781248160
S113096035814217530744F4A081B1819D012F5F63
S11309703F4F318320838C93268137812F5F3F4FF4
S11309803783268314C08B01EC01FB010084F185BD
S1130990E02D0995892BE1F6D80116968D919C914D
S11309A01797019617969C938E931697CE01DF9115
S11309B0CF911F910F910895FA01AA27283051F180
S11309C0203181F1E8946F936E7F6E5F7F4F8F4F7C
S11309D09F4FAF4FB1E03ED0B4E03CD0670F781FDB
S11309E0891F9A1FA11D680F791F8A1F911DA11DC0
S11309F06A0F711D811D911DA11D20D009F46894F9
S1130A003F912AE0269F11243019305D3193DEF6A0
S1130A10CF010895462F4770405D4193B3E00FD056
S1130A20C9F7F6CF462F4F70405D4A3318F0495D41
S1130A3031FD4052419302D0A9F7EACFB4E0A69524
S1130A409795879577956795BA95C9F70097610546
S1130A50710508959B01AC010A2E0694579547959C
S1130A6037952795BA95C9F7620F731F841F951F91
S1130A70A01D08952F923F924F925F926F927F92A2
S1130A808F929F92AF92BF92CF92DF92EF92FF929A
S1130A900F931F93CF93DF93CDB7DEB7CA1BDB0B46
S1130AA00FB6F894DEBF0FBECDBF09942A883988EB
S1130AB048885F846E847D848C849B84AA84B984F2
S1130AC0C884DF80EE80FD800C811B81AA81B981FE
S1130AD0CE0FD11D0FB6F894DEBF0FBECDBFED0112
S1090AE00895F894FFCF15
S1130AE603000201202054454D50455241545552AD
S1130AF64500202020202020253032752043002068
S1130B0620202048554D494449545900202020208E
S1130B1620202530327520252500202020425554DA
S1130B26544F4E20434F554E540020202020202061
S1070B36257500001D
S9030000FC
