S00F000042544C5F4156522E73726563EB
S11300000C943E000C9453000C9453000C94530035
S11300100C9453000C9453000C9453000C94530010
S11300200C9453000C9453000C9453000C94530000
S11300300C9453000C9453000C9453000C945300F0
S11300400C9453000C9453000C9453000C945300E0
S11300500C9453000C9453000C9453000C945300D0
S11300600C9453000C9453000C9453000C945300C0
S11300700C9453000C9453000C94530011241FBE91
S1130080CFEFD8E0DEBFCDBF11E0A0E0B1E0E4EAFD
S1130090F4E002C005900D92A431B107D9F70E9493
S11300A039020C9450020C94000081B1836F81B921
S11300B00E94E101089522B130E1839FC00111241F
S11300C02F70822B82B9089582B1816082B908951C
S11300D082B18E7F82B9089582B1826082B9089517
S11300E082B18D7F82B908950F931F9308C08FEC5E
S11300F097E00197F1F700C00000C901B8018B0136
S11301009C010150110921093109672B682B692BC6
S113011071F71F910F9108950F931F9306C082E00A
S11301208A95F1F700C0C901B8018B019C01015007
S1130130110921093109672B682B692B81F71F915C
S11301400F91089541E060E081E00E942901089543
S113015040E060E081E00E942901089541E060E010
S113016081E00E94B6000E94A8000895683008F05B
S11301706FC0843008F06CC0813001F130F08230FF
S1130180B1F1833009F44CC00895413059F421B1E0
S113019081E090E002C0880F991F6A95E2F7822BF4
S11301A081B9089521B181E090E002C0880F991FC0
S11301B06A95E2F78095822381B90895413059F414
S11301C024B181E090E002C0880F991F6A95E2F79C
S11301D0822B84B9089524B181E090E002C0880F95
S11301E0991F6A95E2F78095822384B90895413076
S11301F059F427B181E090E002C0880F991F6A95F5
S1130200E2F7822B87B9089527B181E090E002C01C
S1130210880F991F6A95E2F78095822387B908951C
S1130220413059F42AB181E090E002C0880F991F4F
S11302306A95E2F7822B8AB908952AB181E090E0A9
S113024002C0880F991F6A95E2F7809582238AB9C4
S11302500895683008F06FC0843008F06CC08130B5
S113026001F130F08230B1F1833009F44CC00895CB
S1130270413059F422B181E090E002C0880F991F07
S11302806A95E2F7822B82B9089522B181E090E069
S113029002C0880F991F6A95E2F78095822382B97C
S11302A00895413059F425B181E090E002C0880FEF
S11302B0991F6A95E2F7822B85B9089525B181E0EB
S11302C090E002C0880F991F6A95E2F78095822317
S11302D085B90895413059F428B181E090E002C015
S11302E0880F991F6A95E2F7822B88B9089528B17F
S11302F081E090E002C0880F991F6A95E2F780952B
S1130300822388B90895413059F42BB181E090E0FB
S113031002C0880F991F6A95E2F7822B8BB9089562
S11303202BB181E090E002C0880F991F6A95E2F733
S1130330809582238BB908950E946C0061E070E07F
S113034080E090E00E948C000E94700062E370E004
S113035080E090E00E948C0008958F700E945B0002
S11303600E949C010895CF93DF93C82FD62F662354
S113037019F00E94640002C00E9468008C2F8295CC
S11303808F700E94AD018C2F8F700E94AD01D1112E
S113039009C0C150C23030F462E070E080E090E007
S11303A00E947400DF91CF91089560E00E94B30130
S11303B0089561E00E94B301089581E00E94D5018F
S11303C0089568E270E080E090E00E9474000E946A
S11303D068000E94700083E00E94AD0165E070E057
S11303E080E090E00E94740083E00E94AD0166E921
S11303F070E080E090E00E948C0083E00E94AD01F8
S113040066E970E080E090E00E948C0082E00E9447
S1130410AD0166E970E080E090E00E948C0088E223
S11304200E94D50188E00E94D5010E94DD0186E08A
S11304300E94D5018CE00E94D50108950E94D90143
S11304400895CF93DF93EC01892B21F406C0219604
S11304500E941E0288818111FACFDF91CF91089505
S1130460803108F08FE06111805C80680E94D501C2
S113047008950E94550060E080E00E94300280E010
S113048091E00E94210261E080E00E94300285E058
S113049091E00E9421020E94AE000E94A200FFCFC0
S10704A0F894FFCFFA
S11304A4716971690069732074687579207175794B
S10704B46E6800006A
S9030000FC
