:100000000C943E000C9453000C9453000C94530039
:100010000C9453000C9453000C9453000C94530014
:100020000C9453000C9453000C9453000C94530004
:100030000C9453000C9453000C9453000C945300F4
:100040000C9453000C9453000C9453000C945300E4
:100050000C9453000C9453000C9453000C945300D4
:100060000C9453000C9453000C9453000C945300C4
:100070000C9453000C9453000C94530011241FBE95
:10008000CFEFD8E0DEBFCDBF11E0A0E0B1E0E0E50A
:10009000F2E002C005900D92A630B107D9F70E9498
:1000A0001F010C9426010C9400000F931F9307C0AE
:1000B000815001C084E68111FBCFC901B8018B01D9
:1000C0009C010150110921093109672B682B692B0B
:1000D00089F71F910F910895CF92DF92EF92FF92CF
:1000E00006C088EE93E00E945500C701B6016B017F
:1000F0007C0121E0C21AD108E108F108672B682BC6
:10010000692B79F7FF90EF90DF90CF9008950895D5
:100110000895089508950E94890061E070E080E0EC
:1001200090E00E9455000E948A0062E370E080E047
:1001300090E00E94550008958F700E949C000E94DC
:100140008B000895CF93DF93C82FD62F662319F025
:100150000E94870002C00E9488008C2F82958F70B9
:100160000E949C008C2F8F700E949C00D11109C0AE
:10017000C150C23030F462E070E080E090E00E9454
:100180006C00DF91CF91089560E00E94A200089575
:1001900061E00E94A200089581E00E94C4000895D9
:1001A00068E270E080E090E00E946C000E948800AD
:1001B0000E948A0083E00E949C0065E070E080E07D
:1001C00090E00E946C0083E00E949C0066E970E071
:1001D00080E090E00E94550083E00E949C0066E968
:1001E00070E080E090E00E94550082E00E949C0058
:1001F00066E970E080E090E00E94550088E20E948D
:10020000C40088E00E94C4000E94CC0086E00E94E6
:10021000C4008CE00E94C40008950E94C8000895A4
:10022000CF93DF93EC01892B21F406C021960E9425
:100230000D0188818111FACFDF91CF9108950E943D
:10024000D00080E091E00E941001FFCFF894FFCF32
:06025000716971690000F4
:00000001FF
