:100000000C943E000C945B000C945B000C945B0021
:100010000C945B000C945B000C945B000C945B00F4
:100020000C945B000C945B000C945B000C945B00E4
:100030000C945B000C9422020C945B000C945B000B
:100040000C945B000C945B000C945B000C945B00C4
:100050000C945B000C945B000C945B000C945B00B4
:100060000C945B000C945B000C945B000C945B00A4
:100070000C945B000C945B000C945B0011241FBE7D
:10008000CFEFD8E0DEBFCDBF11E0A0E0B1E0E2EB02
:10009000F6E002C005900D92A432B107D9F721E035
:1000A000A4E2B1E001C01D92AF32B207E1F70E94B5
:1000B000FC020C9457030C9400000E945C010E9407
:1000C0004702609325017093260180932701909346
:1000D0002801109224010895CF92DF92EF92FF92AF
:1000E0000F931F93CF93DF9300D0CDB7DEB70E945D
:1000F000470200912501109126012091270130919E
:1001000028016B017C01C01AD10AE20AF30A40ED12
:10011000C41647E0D406E104F104E8F06093250139
:10012000709326018093270190932801BE016E5F92
:100130007F4FCE0101960E94630181110AC089811F
:100140000E9459028A810E94530281E08093240117
:1001500002C0109224010F900F90DF91CF911F9158
:100160000F91FF90EF90DF90CF9008958091240140
:10017000089587B1806487B9089587B18F7B87B967
:1001800088B1806488B9089588B18F7B88B9089553
:1001900088B1806488B9089586B186FB882780F984
:1001A00008951F93CF93DF93182FEB0107C020977B
:1001B00059F0219782E08A95F1F700C00E94CC00A7
:1001C0008113F5CF81E001C080E0DF91CF911F91D5
:1001D0000895CF93DF93EC0164E670E081E00E9424
:1001E000D100882391F08AE68A95F1F700C00E9439
:1001F000CC0091E0811101C090E0988364E670E04A
:1002000080E00E94D100811181E0DF91CF910895BB
:10021000EF92FF921F93CF93DF931F92CDB7DEB77C
:100220007C01FC01108210E00DC0CE0101960E94FD
:10023000E900882351F0F7018081880F9981892B8B
:1002400080831F5F183088F381E00F90DF91CF919A
:100250001F91FF90EF9008950E94B9000E94C40082
:100260008FE39CE90197F1F700C000000E94C800ED
:1002700090E59A95F1F70E94BD0081E0089568EC41
:1002800070E080E00E94D100882381F066E970E090
:1002900081E00E94D100882359F066E970E080E097
:1002A0000E94D100811106C083E0089581E0089585
:1002B00082E0089584E0089587B18F7B87B988B183
:1002C000806488B90895CF92DF92EF92FF920F93E6
:1002D0001F93CF93DF9300D000D01F92CDB7DEB72E
:1002E0006C017B010E942C01882329F10E943F01AF
:1002F000182F843011F500E00BC081E090E08C0FE6
:100300009D1F800F911D0E9408018823C1F00F5F7F
:10031000053098F339818A812B819C81830F820F6C
:10032000890F9D8189130CC0F60130838B81F70101
:10033000808310E005C011E003C012E001C013E0AB
:10034000812F0F900F900F900F900F90DF91CF9112
:100350001F910F91FF90EF90DF90CF90089581B1A2
:10036000836F81B90E94A402089522B130E1839F76
:10037000C00111242F70822B82B9089582B181604F
:1003800082B9089582B18E7F82B9089582B1826068
:1003900082B9089582B18D7F82B908950F931F931A
:1003A00008C08FEC97E00197F1F700C00000C90189
:1003B000B8018B019C010150110921093109672BFA
:1003C000682B692B71F71F910F9108950F931F935D
:1003D00006C082E08A95F1F700C0C901B8018B011F
:1003E0009C010150110921093109672B682B692BE8
:1003F00081F71F910F9108959FB7F89410922901EA
:1004000010922A0110922B0110922C011092800060
:10041000E1E8F0E010821092850010928400808163
:10042000886080832CE730E0309389002093880037
:10043000AFE6B0E08C9182608C9380818360808392
:100440009FBF08951F920F920FB60F9211248F93A2
:100450009F93AF93BF938091290190912A01A0911E
:100460002B01B0912C010196A11DB11D8093290192
:1004700090932A01A0932B01B0932C01BF91AF91CF
:100480009F918F910F900FBE0F901F9018952FB7CF
:10049000F8946091290170912A0180912B0190912B
:1004A0002C012FBF089580932E01089580912E0175
:1004B000089580932D01089580912D0108950E9443
:1004C000C60161E070E080E090E00E94E6010E94D9
:1004D000CA0162E370E080E090E00E94E6010895C6
:1004E0008F700E94B5010E945F020895CF93DF9341
:1004F000C82FD62F662319F00E94BE0102C00E94A9
:10050000C2018C2F82958F700E9470028C2F8F7089
:100510000E947002D11109C0C150C23030F462E0B3
:1005200070E080E090E00E94CE01DF91CF910895CD
:1005300060E00E947602089561E00E9476020895CC
:1005400081E00E949802089568E270E080E090E007
:100550000E94CE010E94C2010E94CA0183E00E9453
:10056000700265E070E080E090E00E94CE0183E0E0
:100570000E94700266E970E080E090E00E94E6016F
:1005800083E00E94700266E970E080E090E00E94E3
:10059000E60182E00E94700266E970E080E090E08F
:1005A0000E94E60188E20E94980288E00E94980278
:1005B0000E94A00286E00E9498028CE00E949802AD
:1005C00008950E949C020895CF93DF93EC01892B3C
:1005D00021F406C021960E94E10288818111FACFA0
:1005E000DF91CF910895803108F08FE06111805C38
:1005F00080680E94980208950E94AF010E94FC0149
:100600000E945D00789460E080E00E94F30280E048
:1006100091E00E94E4020E946C000E945C02082F9C
:100620000E945602182F0E94B600C82F61E080E099
:100630000E94F302C130B1F58EE091E00E94E40225
:10064000CDEC0C9FD12D1124D695D695D69580E36F
:100650008D0F0E94E102DD0F8D2F880F880FD80FBC
:10066000802F8D1B805D0E94E10281E191E00E945C
:10067000E4021C9FC12D1124C695C695C69580E342
:100680008C0F0E94E102CC0F8C2F880F880FC80FAF
:10069000812F8C1B805D0E94E10280E291E00E942C
:1006A000E402B9CF85E191E00E94E402B4CFF8946E
:0206B000FFCF7A
:1006B2004448543131204D4F4E49544F5200483A2C
:1006C2000020543A00444854204552524F522020B0
:0406D20020202000C4
:00000001FF
