:100000000C943E000C9453000C9453000C94530039
:100010000C9453000C9453000C9453000C94530014
:100020000C9453000C9453000C9453000C94530004
:100030000C9453000C9453000C9453000C945300F4
:100040000C9453000C9453000C9453000C945300E4
:100050000C9453000C9453000C9453000C945300D4
:100060000C9453000C9453000C9453000C945300C4
:100070000C9453000C9453000C94530011241FBE95
:10008000CFEFD8E0DEBFCDBF11E0A0E0B1E0E8EAFD
:10009000F2E002C005900D92A431B107D9F70E9499
:1000A0003F010C9452010C94000081B1836F81B91F
:1000B0000E94E700089522B130E1839FC00111241E
:1000C0002F70822B82B9089582B1816082B9089520
:1000D00082B18E7F82B9089582B1826082B908951B
:1000E00082B18D7F82B908950F931F9308C08FEC62
:1000F00097E00197F1F700C00000C901B8018B013A
:100100009C010150110921093109672B682B692BCA
:1001100071F71F910F9108950F931F9306C082E00E
:100120008A95F1F700C0C901B8018B019C0101500B
:10013000110921093109672B682B692B81F71F9160
:100140000F9108950E946C0061E070E080E090E003
:100150000E948C000E94700062E370E080E090E0FA
:100160000E948C0008958F700E945B000E94A20084
:100170000895CF93DF93C82FD62F662319F00E94DE
:10018000640002C00E9468008C2F82958F700E94CC
:10019000B3008C2F8F700E94B300D11109C0C150E1
:1001A000C23030F462E070E080E090E00E947400C1
:1001B000DF91CF91089560E00E94B900089561E059
:1001C0000E94B900089581E00E94DB00089568E272
:1001D00070E080E090E00E9474000E9468000E943D
:1001E000700083E00E94B30065E070E080E090E082
:1001F0000E94740083E00E94B30066E970E080E032
:1002000090E00E948C0083E00E94B30066E970E0F9
:1002100080E090E00E948C0082E00E94B30066E9DA
:1002200070E080E090E00E948C0088E20E94DB0099
:1002300088E00E94DB000E94E30086E00E94DB0071
:100240008CE00E94DB0008950E94DF000895CF93A8
:10025000DF93EC01892B21F406C021960E94240132
:1002600088818111FACFDF91CF910895803108F014
:100270008FE06111805C80680E94DB0008950E941D
:10028000550060E080E00E94360180E091E00E942D
:10029000270161E080E00E94360185E091E00E9444
:0802A0002701FFCFF894FFCF06
:1002A800716971690069732074687579207175794D
:0402B8006E6800006C
:00000001FF
