S00F000042544C5F4156522E73726563EB
S11300000C943E000C945B000C945B000C945B001D
S11300100C945B000C945B000C945B000C945B00F0
S11300200C945B000C945B000C945B000C945B00E0
S11300300C945B000C9403010C945B000C945B0027
S11300400C945B000C945B000C945B000C945B00C0
S11300500C945B000C945B000C945B000C945B00B0
S11300600C945B000C945B000C945B000C945B00A0
S11300700C945B000C945B000C945B0011241FBE79
S1130080CFEFD8E0DEBFCDBF11E0A0E0B1E0E2EDFC
S1130090F3E002C005900D92A631B107D9F721E033
S11300A0A6E1B1E001C01D92AC31B207E1F70E94B4
S11300B0D0010C94E7010C94000080910001813080
S11300C0A1F040F1823019F0833091F108950E943B
S11300D0B000811141C081E08093000180ED97E080
S11300E090931B0180931A0108950E94B0008130FF
S11300F041F482E08093000110921B0110921A01D6
S1130100089580911A0190911B01892B29F5109271
S1130110000108950E94B0008130F1F483E08093DF
S1130120000180ED97E090931B0180931A010895DC
S11301300E94B000811107C01092000110921B01AF
S113014010921A01089580911A0190911B01892B34
S113015019F482E0809300010895809101010895CB
S1130160379902C080E0089581E0089581B1836FDA
S113017081B90E947801089522B130E1839FC001C2
S113018011242F70822B82B9089582B1816082B9C3
S1130190089582B18E7F82B9089582B1826082B956
S11301A0089582B18D7F82B908950F931F9308C07B
S11301B08FEC97E00197F1F700C00000C901B80186
S11301C08B019C010150110921093109672B682B0E
S11301D0692B71F71F910F9108950F931F9306C018
S11301E082E08A95F1F700C0C901B8018B019C0136
S11301F00150110921093109672B682B692B81F7FB
S11302001F910F9108951F920F920FB60F92112410
S11302108F939F93AF93BF93809116019091170191
S1130220A0911801B09119010196A11DB11D8093EF
S1130230160190931701A0931801B09319018091AE
S11302401A0190911B01009729F0019790931B01CB
S113025080931A01BF91AF919F918F910F900FBE20
S11302600F901F9018950E94CD0061E070E080E02F
S113027090E00E94ED000E94D10062E370E080E013
S113028090E00E94ED0008958F700E94BC000E94CF
S113029033010895CF93DF93C82FD62F662319F027
S11302A00E94C50002C00E94C9008C2F82958F70E5
S11302B00E9444018C2F8F700E944401D11109C007
S11302C0C150C23030F462E070E080E090E00E94FF
S11302D0D500DF91CF91089560E00E944A0108950E
S11302E061E00E944A01089581E00E946C01089532
S11302F068E270E080E090E00E94D5000E94C900AE
S11303000E94D10083E00E94440165E070E080E037
S113031090E00E94D50083E00E94440166E970E009
S113032080E090E00E94ED0083E00E94440166E9D1
S113033070E080E090E00E94ED0082E00E944401C1
S113034066E970E080E090E00E94ED0088E20E949F
S11303506C0188E00E946C010E94740186E00E9496
S11303606C018CE00E946C0108950E947001089554
S1130370CF93DF93EC01892B21F406C021960E94D0
S1130380B50188818111FACFDF91CF910895803131
S113039008F08FE06111805C80680E946C01089510
S11303A00E94B60060E080E00E94C70182E091E014
S11303B00E94B80161E080E00E94C70187E091E0FB
S11303C00E94B8010E945D000E94AD00FBCFF8942A
S10503D0FFCF59
S11303D20201716971690069732074687579207109
S10903E275796E6800004D
S9030000FC
