S00F000042544C5F4156522E73726563EB
S11300000C943E000C945B000C945B000C945B001D
S11300100C945B000C945B000C945B000C945B00F0
S11300200C945B000C945B000C945B000C945B00E0
S11300300C945B000C94F1040C945B000C945B0036
S11300400C945B000C945B000C945B000C945B00C0
S11300500C945B000C945B000C945B000C945B00B0
S11300600C945B000C945B000C945B000C945B00A0
S11300700C945B000C945B000C945B0011241FBE79
S1130080CFEFD8E0DEBFCDBF11E0A0E0B1E0E8E102
S1130090F2E102C005900D92A036B107D9F721E034
S11300A0A0E6B1E001C01D92A537B207E1F70E94B6
S11300B05D000C940A090C9400000E94A0010E94A7
S11300C0B3010E9467030E94CB0478940E94FC0051
S11300D00E944C010E94C2010E9471000E947A0396
S11300E0F5CF809161018130C9F120F0823009F4AB
S11300F053C0089560E082E00E943D05811114C060
S1130100809100018E3108F076C08F5F80930001EA
S113011081E0809361011092600184EF91E09093FB
S1130120740180937301089561E082E00E943D05AB
S1130130811161C080910001813108F45CC081505B
S11301408093000181E0809361018093600184EFDA
S113015091E090937401809373010895609160011C
S113016082E00E943D05813039F4109261011092C1
S11301707401109273010895809173019091740138
S1130180892BC9F582E08093610184E690E0909325
S113019074018093730108956091600182E00E946C
S11301A03D05813039F4109261011092740110926E
S11301B0730108958091730190917401892BD9F48E
S11301C084E690E0909374018093730180916001C0
S11301D0811108C0909100019E3120F49F5F90939B
S11301E000010895813039F480910001813118F0C3
S11301F08150809300010895809101018130A1F024
S113020040F1823019F0833091F108950E948F01FA
S1130210811141C081E08093010180ED97E09093CA
S113022074018093730108950E948F01813041F419
S113023082E0809301011092740110927301089579
S11302408091730190917401892B29F51092010119
S113025008950E948F018130F1F483E080930101BD
S113026080ED97E0909374018093730108950E9448
S11302708F01811107C01092010110927401109234
S1130280730108958091730190917401892B19F47D
S113029082E0809301010895809162018130A1F090
S11302A028F0823031F1833041F12EC00E949A014E
S11302B081112CC081E08093620184E690E09093E8
S11302C074018093730108950E949A01813039F476
S11302D0109262011092740110927301089580913A
S11302E0730190917401892B89F482E080936201F7
S11302F0089583E08093620108950E949A018130F9
S113030029F4109262010895109262010895809177
S11303106201823011F480E0089581E0089596B17D
S1130320892F817090FF05C096B1892F827091FD4D
S113033081E0089593B1892F827091FD81E0089541
S113034087B18E7F87B987B18D7F87B984B18D7F5F
S113035084B988B1816088B988B1826088B985B16F
S1130360826085B908950E942B040E94250560933C
S11303706401709365018093660190936701109204
S113038063010895CF92DF92EF92FF920F931F9330
S1130390CF93DF9300D0CDB7DEB70E94250500913F
S11303A064011091650120916601309167016B0130
S11303B07C01C01AD10AE20AF30A44EFC41641E0F0
S11303C0D406E104F104E8F06093640170936501DC
S11303D08093660190936701BE016E5F7F4FCE01EB
S11303E001960E94320481110AC089810E94370556
S11303F08A810E94310581E08093630102C01092DA
S113040063010F900F90DF91CF911F910F91FF9097
S1130410EF90DF90CF9008950F931F93CF93DF93C6
S1130420CDB7DEB761970FB6F894DEBF0FBECDBF70
S113043060E080E00E94170683E091E00E940806D5
S113044061E080E00E94170683E091E00E940806C4
S113045080916C01813051F120F0823009F44BC05D
S11304606FC060E080E00E94170684E191E00E9482
S113047008060E9434051F928F9382E291E09F93B5
S11304808F938E010F5F1F4F1F930F930E942006BF
S113049061E080E00E941706C8010E9408060F90E0
S11304A00F900F900F900F900F904CC060E080E081
S11304B00E9417068FE291E00E9408060E943A0506
S11304C01F928F938CE391E09F938F938E010F5F24
S11304D01F4F1F930F930E94200661E080E00E944B
S11304E01706C8010E9408060F900F900F900F90F6
S11304F00F900F9027C060E080E00E9417068AE406
S113050091E00E940806809100011F928F9387E575
S113051091E09F938F938E010F5F1F4F1F930F9353
S11305200E94200661E080E00E941706C8010E9434
S113053008060F900F900F900F900F900F9002C02D
S113054010926C011092020161960FB6F894DEBF0E
S11305500FBECDBFDF91CF911F910F9108950F93DF
S11305601F93CF93DF93CDB7DEB761970FB6F8949F
S1130570DEBF0FBECDBF80916B018130A9F120F0A9
S1130580823009F462C08FC00E94340590916A01E0
S1130590891709F488C080936A0190916C019111C4
S11305A082C01F928F9382E291E09F938F938E017A
S11305B00F5F1F4F1F930F930E94200661E080E09E
S11305C00E94170683E091E00E94080661E080E043
S11305D00E941706C8010E9408060F900F900F9002
S11305E00F900F900F905FC00E943A05909169019F
S11305F0891709F458C08093690190916C01913076
S113060009F051C01F928F938CE391E09F938F93D5
S11306108E010F5F1F4F1F930F930E94200661E00E
S113062080E00E94170683E091E00E94080661E0E2
S113063080E00E941706C8010E9408060F900F90E0
S11306400F900F900F900F902EC080910001909109
S11306506801891741F18093680190916C0192308F
S113066011F51F928F9387E591E09F938F938E01ED
S11306700F5F1F4F1F930F930E94200661E080E0DD
S11306800E94170683E091E00E94080661E080E082
S11306900E941706C8010E9408060F900F900F9041
S11306A00F900F900F9080916B018F5F80936B017F
S11306B0833010F010926B0161960FB6F894DEBF90
S11306C00FBECDBFDF91CF911F910F9108950E946E
S11306D07E0481E080930201089580916C018F5F14
S11306E080936C01833010F010926C0181E0809350
S11306F0020108950E948701811102C00E946D03C6
S11307008091020181110E940C020E94AF0208959F
S113071087B1806487B9089587B18F7B87B988B121
S1130720806488B9089588B18F7B88B9089588B1A9
S1130730806488B9089586B186FB882780F9089576
S11307401F93CF93DF93182FEB0107C0209759F025
S1130750219782E08A95F1F700C00E949B038113E0
S1130760F5CF81E001C080E0DF91CF911F91089522
S1130770CF93DF93EC0164E670E081E00E94A00374
S1130780882391F08AE68A95F1F700C00E949B03C2
S113079091E0811101C090E0988364E670E080E00C
S11307A00E94A003811181E0DF91CF910895EF921F
S11307B0FF921F93CF93DF931F92CDB7DEB77C01D7
S11307C0FC01108210E00DC0CE0101960E94B80316
S11307D0882351F0F7018081880F9981892B8083C8
S11307E01F5F183088F381E00F90DF91CF911F9144
S11307F0FF90EF9008950E9488030E9493038FE373
S11308009CE90197F1F700C000000E94970390E56E
S11308109A95F1F70E948C0381E0089568EC70E0EA
S113082080E00E94A003882381F066E970E081E003
S11308300E94A003882359F066E970E080E00E94DA
S1130840A003811106C083E0089581E0089582E049
S1130850089584E0089587B18F7B87B988B1806457
S113086088B90895CF92DF92EF92FF920F931F936E
S1130870CF93DF9300D000D01F92CDB7DEB76C01C9
S11308807B010E94FB03882329F10E940E04182F88
S1130890843011F500E00BC081E090E08C0F9D1FC7
S11308A0800F911D0E94D7038823C1F00F5F05308C
S11308B098F339818A812B819C81830F820F890F60
S11308C09D8189130CC0F60130838B81F7018083ED
S11308D010E005C011E003C012E001C013E0812F55
S11308E00F900F900F900F900F90DF91CF911F9169
S11308F00F91FF90EF90DF90CF90089581B1836FB7
S113090081B90E94C805089522B130E1839FC001D6
S113091011242F70822B82B9089582B1816082B92B
S1130920089582B18E7F82B9089582B1826082B9BE
S1130930089582B18D7F82B908950F931F9308C0E3
S11309408FEC97E00197F1F700C00000C901B801EE
S11309508B019C010150110921093109672B682B76
S1130960692B71F71F910F9108950F931F9306C080
S113097082E08A95F1F700C0C901B8018B019C019E
S11309800150110921093109672B682B692B81F763
S11309901F910F9108959FB7F89410926D011092D2
S11309A06E0110926F011092700110928000E1E8C4
S11309B0F0E010821092850010928400808188609B
S11309C080832CE730E03093890020938800AFE6E1
S11309D0B0E08C9182608C938081836080839FBF20
S11309E008951F920F920FB60F9211248F939F9325
S11309F0AF93BF9380916D0190916E01A0916F01AF
S1130A00B09170010196A11DB11D80936D01909369
S1130A106E01A0936F01B093700180917301909166
S1130A207401892B49F080917301909174010197AD
S1130A309093740180937301BF91AF919F918F91B3
S1130A400F900FBE0F901F9018952FB7F8946091D8
S1130A506D0170916E0180916F01909170012FBFB3
S1130A60089580937201089580917201089580938E
S1130A70710108958091710108956830B0F5843052
S1130A80B0F5813089F028F08230C9F0833011F15B
S1130A9030C080B190E002C0959587956A95E2F7E1
S1130AA080FF29C081E0089583B190E002C095954C
S1130AB087956A95E2F780FF20C081E0089586B1AA
S1130AC090E002C0959587956A95E2F780FF17C07C
S1130AD081E0089589B190E002C0959587956A9563
S1130AE0E2F780FF0EC081E0089580E0089580E081
S1130AF0089580E0089580E0089580E0089580E0FE
S1130B00089580E008950E94950461E070E080E01B
S1130B1090E00E94B5040E94990462E370E080E0D2
S1130B2090E00E94B50408958F700E9484040E948E
S1130B3083050895CF93DF93C82FD62F662319F02A
S1130B400E948D0402C00E9491048C2F82958F70A4
S1130B500E9494058C2F8F700E949405D11109C0B6
S1130B60C150C23030F462E070E080E090E00E9456
S1130B709D04DF91CF91089560E00E949A05089545
S1130B8061E00E949A05089581E00E94BC050895E1
S1130B9068E270E080E090E00E949D040E9491046D
S1130BA00E94990483E00E94940565E070E080E06F
S1130BB090E00E949D0483E00E94940566E970E041
S1130BC080E090E00E94B50483E00E94940566E909
S1130BD070E080E090E00E94B50482E00E949405F9
S1130BE066E970E080E090E00E94B50488E20E942B
S1130BF0BC0588E00E94BC050E94C40586E00E94F2
S1130C00BC058CE00E94BC0508950E94C0050895AF
S1130C10CF93DF93EC01892B21F406C021960E9427
S1130C20050688818111FACFDF91CF910895803133
S1130C3008F08FE06111805C80680E94BC05089513
S1130C40AEE0B0E0E6E2F6E00C94E1080D891E891E
S1130C5086E08C831A8309838FEF9FE79E838D83BD
S1130C60AE01475E5F4F6F89788DCE0101960E9479
S1130C704206EF81F885E00FF11F10822E96E4E022
S1130C800C94FD08ABE0B0E0E8E4F6E00C94D30883
S1130C906C017B018A01FC0117821682838181FF2A
S1130CA0CCC1CE0101963C01F6019381F70193FD7D
S1130CB0859193FF81917F01882309F4BAC185321C
S1130CC039F493FD859193FF81917F01853229F455
S1130CD0B60190E00E943908E7CF912C212C312CE9
S1130CE0FFE1F315D8F08B3279F038F4803279F0E3
S1130CF08332A1F4232D20611DC08D3261F0803335
S1130D0069F4232D216016C0832D8260382EE32DD3
S1130D10E4603E2E2AC0F32DF8601DC037FC2DC0C0
S1130D2020ED280F2A3040F08E32B9F436FC81C110
S1130D30232D2064322E19C036FE06C08AE0989E08
S1130D40200D1124922E11C0EAE02E9E200D1124B4
S1130D50222EF32DF0623F2E08C08C3621F4832D11
S1130D608068382E02C0883641F4F70193FD8591DE
S1130D7093FF81917F018111B3CF982F9F7D95546B
S1130D80933028F40C5F1F4F9FE399830DC0833683
S1130D9031F0833771F0833509F059C021C0F8016F
S1130DA0808189830E5F1F4F88248394912C530183
S1130DB013C02801F2E04F0E511CF801A080B1804D
S1130DC036FE03C0692D70E002C06FEF7FEFC501EE
S1130DD00E942E084C018201F32DFF773F2E16C08E
S1130DE0280122E0420E511CF801A080B18036FE99
S1130DF003C0692D70E002C06FEF7FEFC5010E9450
S1130E0023084C01F32DF0683F2E820133FC1BC0F4
S1130E10822D90E088169906B0F4B60180E290E045
S1130E200E9439082A94F4CFF50137FC859137FEE6
S1130E3081915F01B60190E00E94390821102A9443
S1130E4021E0821A91088114910471F7E8C0843674
S1130E5011F0893641F5F80137FE07C060817181D0
S1130E60828193810C5F1F4F08C060817181072EBE
S1130E70000C880B990B0E5F1F4FF32DFF763F2E4E
S1130E8097FF09C090958095709561957F4F8F4F1E
S1130E909F4FF0683F2E2AE030E0A3010E947508BE
S1130EA0882E861845C0853731F4232D2F7EB22E27
S1130EB02AE030E025C0932D997FB92E8F36C1F0FA
S1130EC018F4883579F0B5C0803719F0883721F0E7
S1130ED0B0C0E92FE061BE2EB4FE0DC0FB2DF4605E
S1130EE0BF2E09C034FE0AC0292F2660B22E06C0C8
S1130EF028E030E005C020E130E002C020E132E02B
S1130F00F801B7FE07C060817181828193810C5F13
S1130F101F4F06C06081718180E090E00E5F1F4F1B
S1130F20A3010E947508882E8618FB2DFF773F2E9B
S1130F3036FE0DC0232D2E7FA22E891458F434FEC4
S1130F400BC032FC09C0832D8E7EA82E05C0B82CA0
S1130F50A32C03C0B82C01C0B92CA4FE0FC0FE0101
S1130F60E80DF11D8081803321F49A2D997EA92EFC
S1130F7009C0A2FE06C0B394B39404C08A2D867837
S1130F8009F0B394A3FC11C0A0FE06C0B21488F407
S1130F90280C922C9B180EC0B21460F4B60180E2A7
S1130FA090E00E943908B394F7CFB21418F42B18C8
S1130FB002C0982C212CA4FE10C0B60180E390E05E
S1130FC00E943908A2FE17C0A1FC03C088E790E084
S1130FD002C088E590E0B6010CC08A2D867859F0ED
S1130FE0A1FE02C08BE201C080E2A7FC8DE2B60143
S1130FF090E00E943908891438F4B60180E390E047
S11310000E9439089A94F7CF8A94F301E80DF11DF0
S11310108081B60190E00E9439088110F5CF22202A
S113102009F442CEB60180E290E00E9439082A9485
S1131030F6CFF6018681978102C08FEF9FEF2B9642
S1131040E2E10C94EF08FC0105906150704001103E
S1131050D8F7809590958E0F9F1F0895FC016150DD
S1131060704001900110D8F7809590958E0F9F1FC6
S113107008950F931F93CF93DF93FB01238121FDE9
S113108003C08FEF9FEF2CC022FF16C0468157810B
S1131090248135814217530744F4A081B1819D0115
S11310A02F5F3F4F318320838C93268137812F5FBD
S11310B03F4F3783268314C08B01EC01FB0100846E
S11310C0F185E02D0995892BE1F6D80116968D91CD
S11310D09C911797019617969C938E931697CE0121
S11310E0DF91CF911F910F910895FA01AA2728301B
S11310F051F1203181F1E8946F936E7F6E5F7F4FE1
S11311008F4F9F4FAF4FB1E03ED0B4E03CD0670F5C
S1131110781F891F9A1FA11D680F791F8A1F911DAF
S1131120A11D6A0F711D811D911DA11D20D009F4FF
S113113068943F912AE0269F11243019305D319341
S1131140DEF6CF010895462F4770405D4193B3E02A
S11311500FD0C9F7F6CF462F4F70405D4A3318F0D1
S1131160495D31FD4052419302D0A9F7EACFB4E082
S1131170A6959795879577956795BA95C9F700973A
S11311806105710508959B01AC010A2E06945795DB
S1131190479537952795BA95C9F7620F731F841F32
S11311A0951FA01D08952F923F924F925F926F92C8
S11311B07F928F929F92AF92BF92CF92DF92EF92E3
S11311C0FF920F931F93CF93DF93CDB7DEB7CA1B64
S11311D0DB0B0FB6F894DEBF0FBECDBF09942A888F
S11311E0398848885F846E847D848C849B84AA8437
S11311F0B984C884DF80EE80FD800C811B81AA81C4
S1131200B981CE0FD11D0FB6F894DEBF0FBECDBF8E
S10B1210ED010895F894FFCFED
S1131218100201202020202020202020202020200F
S113122820202000202054454D5045524154555209
S1131238450020202020202025303275204300201E
S113124820202048554D4944495459002020202045
S113125820202530327520252500202020205345C4
S1131268542054454D50002020202020202575006E
S9030000FC
