S00F000042544C5F4156522E73726563EB
S11300000C943E000C945B000C945B000C945B001D
S11300100C945B000C945B000C945B000C945B00F0
S11300200C945B000C945B000C945B000C945B00E0
S11300300C945B000C943B040C945B000C945B00EC
S11300400C945B000C945B000C945B000C945B00C0
S11300500C945B000C945B000C945B000C945B00B0
S11300600C945B000C945B000C945B000C945B00A0
S11300700C945B000C945B000C945B0011241FBE79
S1130080CFEFD8E0DEBFCDBF11E0A0E0B1E0ECEAF5
S1130090F0E102C005900D92A035B107D9F721E037
S11300A0A0E5B1E001C01D92A036B207E1F70E94BD
S11300B05D000C9454080C9400000E9491020E946C
S11300C07F010E946C010E94150478940E948E01A5
S11300D00E947E040E94A6020E9484040E94B3022D
S11300E00E940B010E9480008091000190E00E9418
S11300F0C0020E9466018111E9CF0E949802E6CFF6
S1130100809151018130C9F120F0823009F453C04B
S1130110089560E082E00E948704811114C08091F8
S113012000018E3108F076C08F5F8093000181E07A
S1130130809351011092500184EF91E090935F01FC
S113014080935E01089561E082E00E94870481113A
S113015061C080910001813108F45CC081508093BA
S1130160000181E0809351018093500184EF91E07C
S113017090935F0180935E0108956091500182E045
S11301800E948704813039F41092510110925F016A
S113019010925E01089580915E0190915F01892B18
S11301A0C9F582E08093510184E690E090935F0169
S11301B080935E0108956091500182E00E9487045B
S11301C0813039F41092510110925F0110925E0156
S11301D0089580915E0190915F01892BD9F484E6A2
S11301E090E090935F0180935E01809150018111B2
S11301F008C0909100019E3120F49F5F909300010C
S11302000895813039F480910001813118F08150D2
S1130210809300010895809101018130A1F040F1A3
S1130220823019F0833091F108950E945B018111AD
S113023041C081E08093010180ED97E090935F01DC
S113024080935E0108950E945B01813041F482E055
S11302508093010110925F0110925E0108958091D4
S11302605E0190915F01892B29F510920101089597
S11302700E945B018130F1F483E08093010180ED01
S113028097E090935F0180935E0108950E945B0163
S1130290811107C01092010110925F0110925E015A
S11302A0089580915E0190915F01892B19F482E099
S11302B080930101089596B1892F817090FF05C044
S11302C096B1892F827091FD81E0089593B1892FB1
S11302D0827091FD81E0089587B18E7F87B987B1DF
S11302E08D7F87B984B18D7F84B988B1816088B9E5
S11302F088B1826088B985B1826085B908950E9409
S113030075030E946F0460935301709354018093AA
S1130310550190935601109252010895CF92DF92A5
S1130320EF92FF920F931F93CF93DF9300D0CDB73B
S1130330DEB70E946F040091530110915401209183
S11303405501309156016B017C01C01AD10AE20AB1
S1130350F30A40EDC41647E0D406E104F104E8F0E2
S11303606093530170935401809355019093560107
S1130370BE016E5F7F4FCE0101960E947C038823ED
S113038051F089810E9481048A810E947B0481E06A
S11303908093520102C0109252010F900F90DF918E
S11303A0CF911F910F91FF90EF90DF90CF90089520
S11303B00F931F93CF93DF93CDB7DEB761970FB63B
S11303C0F894DEBF0FBECDBF809357010E940E0587
S11303D080915701813051F120F0823009F44BC0F3
S11303E06FC060E080E00E94610584E091E00E94BB
S11303F0520580915D011F928F9382E191E09F935A
S11304008F938E010F5F1F4F1F930F930E946A05F6
S113041061E080E00E946105C8010E9452050F90CE
S11304200F900F900F900F900F9070C060E080E0DD
S11304300E9461058FE191E00E94520580915C0168
S11304401F928F938CE291E09F938F938E010F5FA5
S11304501F4F1F930F930E946A0561E080E00E9482
S11304606105C8010E9452050F900F900F900F90E4
S11304700F900F904BC060E080E00E9461058AE31A
S113048091E00E945205809100011F928F9386E4AF
S113049091E09F938F938E010F5F1F4F1F930F93D4
S11304A00E946A0561E080E00E946105C8010E9423
S11304B052050F900F900F900F900F900F9026C041
S11304C01092570160E080E00E94610584E091E0B1
S11304D00E94520580915D011F928F9382E191E009
S11304E09F938F938E010F5F1F4F1F930F930E9453
S11304F06A0561E080E00E946105C8010E9452051E
S11305000F900F900F900F900F900F9061960FB671
S1130510F894DEBF0FBECDBFDF91CF911F910F9135
S113052008950E94C803809157010E94D80108953C
S1130530809157018F5F80935701833010F01092A0
S11305405701809157010E94D801089590915D014F
S1130550981741F080935D0180915701811102C089
S11305600E94D801089590915C01981741F08093FE
S11305705C0180915701813011F40E94D8010895E3
S113058020910201309103012817390751F090930B
S113059003018093020180915701823011F40E947B
S11305A0D801089587B1806487B9089587B18F7B96
S11305B087B988B1806488B9089588B18F7B88B978
S11305C0089588B1806488B9089586B186FB882728
S11305D080F908951F93CF93DF93182FEB0107C081
S11305E0209759F0219782E08A95F1F700C00E9484
S11305F0E5028113F5CF81E001C080E0DF91CF9166
S11306001F910895CF93DF93EC0164E670E081E0DD
S11306100E94EA02882391F08AE68A95F1F700C0E5
S11306200E94E50291E0811101C090E0988364E6A4
S113063070E080E00E94EA02811181E0DF91CF91B5
S11306400895EF92FF921F93CF93DF931F92CDB73C
S1130650DEB77C01FC01108210E00DC0CE010196D2
S11306600E940203882351F0F7018081880F998149
S1130670892B80831F5F183088F381E00F90DF910E
S1130680CF911F91FF90EF9008950E94D2020E9493
S1130690DD028FE39CE90197F1F700C000000E949E
S11306A0E10290E59A95F1F70E94D60281E008955F
S11306B068EC70E080E00E94EA02882381F066E939
S11306C070E081E00E94EA02882359F066E970E054
S11306D080E00E94EA02811106C083E0089581E06F
S11306E0089582E0089584E0089587B18F7B87B9E7
S11306F088B1806488B90895CF92DF92EF92FF9217
S11307000F931F93CF93DF9300D000D01F92CDB7E8
S1130710DEB76C017B010E944503882329F10E9406
S11307205803182F843011F500E00BC081E090E0ED
S11307308C0F9D1F800F911D0E9421038823C1F0FF
S11307400F5F053098F339818A812B819C81830F57
S1130750820F890F9D8189130CC0F60130838B8130
S1130760F701808310E005C011E003C012E001C06E
S113077013E0812F0F900F900F900F900F90DF9147
S1130780CF911F910F91FF90EF90DF90CF9008953C
S113079081B1836F81B90E941205089522B130E1BD
S11307A0839FC00111242F70822B82B9089582B1D6
S11307B0816082B9089582B18E7F82B9089582B131
S11307C0826082B9089582B18D7F82B908950F93B2
S11307D01F9308C08FEC97E00197F1F700C0000069
S11307E0C901B8018B019C0101501109210931098A
S11307F0672B682B692B71F71F910F9108950F9345
S11308001F9306C082E08A95F1F700C0C901B801C0
S11308108B019C010150110921093109672B682BB7
S1130820692B81F71F910F9108959FB7F894109247
S113083058011092590110925A0110925B011092C2
S11308408000E1E8F0E010821092850010928400AC
S11308508081886080832CE730E030938900209386
S11308608800AFE6B0E08C9182608C9380818360D5
S113087080839FBF08951F920F920FB60F92112489
S11308808F939F93AF93BF93809158019091590197
S1130890A0915A01B0915B010196A11DB11D8093F5
S11308A0580190935901A0935A01B0935B01809130
S11308B05E0190915F01892B49F080915E019091D6
S11308C05F01019790935F0180935E01BF91AF91A7
S11308D09F918F910F900FBE0F901F9018952FB777
S11308E0F894609158017091590180915A01909146
S11308F05B012FBF089580935D01089580915D0190
S1130900089580935C01089580915C010895683096
S1130910B0F58430B0F5813089F028F08230C9F028
S1130920833011F130C080B190E002C09595879575
S11309306A95E2F780FF29C081E0089583B190E0D1
S113094002C0959587956A95E2F780FF20C081E003
S1130950089586B190E002C0959587956A95E2F76F
S113096080FF17C081E0089589B190E002C0959599
S113097087956A95E2F780FF0EC081E0089580E0D4
S1130980089580E0089580E0089580E0089580E06F
S1130990089580E0089580E008950E94DF0361E0F7
S11309A070E080E090E00E94FF030E94E30362E3B2
S11309B070E080E090E00E94FF0308958F700E9431
S11309C0CE030E94CD040895CF93DF93C82FD62F72
S11309D0662319F00E94D70302C00E94DB038C2F08
S11309E082958F700E94DE048C2F8F700E94DE042B
S11309F0D11109C0C150C23030F462E070E080E02F
S1130A0090E00E94E703DF91CF91089560E00E9497
S1130A10E404089561E00E94E404089581E00E94E2
S1130A200605089568E270E080E090E00E94E70324
S1130A300E94DB030E94E30383E00E94DE0465E07E
S1130A4070E080E090E00E94E70383E00E94DE040F
S1130A5066E970E080E090E00E94FF0383E00E947A
S1130A60DE0466E970E080E090E00E94FF0382E02B
S1130A700E94DE0466E970E080E090E00E94FF03DB
S1130A8088E20E94060588E00E9406050E940E0581
S1130A9086E00E9406058CE00E94060508950E94E7
S1130AA00A050895CF93DF93EC01892B21F406C046
S1130AB021960E944F0588818111FACFDF91CF9151
S1130AC00895803108F08FE06111805C80680E9495
S1130AD006050895AEE0B0E0E0E7F5E00C942B08DD
S1130AE00D891E8986E08C831A8309838FEF9FE723
S1130AF09E838D83AE01475E5F4F6F89788DCE01F3
S1130B0001960E948C05EF81F885E00FF11F108299
S1130B102E96E4E00C944708ABE0B0E0E2E9F5E09F
S1130B200C941D086C017B018A01FC01178216825A
S1130B30838181FFCCC1CE0101963C01F6019381F2
S1130B40F70193FD859193FF81917F01882309F437
S1130B50BAC1853239F493FD859193FF81917F0168
S1130B60853229F4B60190E00E948307E7CF912CE7
S1130B70212C312CFFE1F315D8F08B3279F038F4C5
S1130B80803279F08332A1F4232D20611DC08D328F
S1130B9061F0803369F4232D216016C0832D8260B7
S1130BA0382EE32DE4603E2E2AC0F32DF8601DC0DC
S1130BB037FC2DC020ED280F2A3040F08E32B9F4D6
S1130BC036FC81C1232D2064322E19C036FE06C0A6
S1130BD08AE0989E200D1124922E11C0EAE02E9EE8
S1130BE0200D1124222EF32DF0623F2E08C08C36E6
S1130BF021F4832D8068382E02C0883641F4F70131
S1130C0093FD859193FF81917F018111B3CF982F3B
S1130C109F7D9554933028F40C5F1F4F9FE3998375
S1130C200DC0833631F0833771F0833509F059C034
S1130C3021C0F801808189830E5F1F4F882483942B
S1130C40912C530113C02801F2E04F0E511CF801FE
S1130C50A080B18036FE03C0692D70E002C06FEF42
S1130C607FEFC5010E9478074C018201F32DFF77C5
S1130C703F2E16C0280122E0420E511CF801A0802C
S1130C80B18036FE03C0692D70E002C06FEF7FEFC4
S1130C90C5010E946D074C01F32DF0683F2E8201BF
S1130CA033FC1BC0822D90E088169906B0F4B6017F
S1130CB080E290E00E9483072A94F4CFF50137FC88
S1130CC0859137FE81915F01B60190E00E94830710
S1130CD021102A9421E0821A91088114910471F759
S1130CE0E8C0843611F0893641F5F80137FE07C0B3
S1130CF060817181828193810C5F1F4F08C0608184
S1130D007181072E000C880B990B0E5F1F4FF32D7A
S1130D10FF763F2E97FF09C0909580957095619559
S1130D207F4F8F4F9F4FF0683F2E2AE030E0A301A2
S1130D300E94BF07882E861845C0853731F4232DBD
S1130D402F7EB22E2AE030E025C0932D997FB92E54
S1130D508F36C1F018F4883579F0B5C0803719F0B2
S1130D60883721F0B0C0E92FE061BE2EB4FE0DC07B
S1130D70FB2DF460BF2E09C034FE0AC0292F266063
S1130D80B22E06C028E030E005C020E130E002C009
S1130D9020E132E0F801B7FE07C0608171818281F1
S1130DA093810C5F1F4F06C06081718180E090E0E9
S1130DB00E5F1F4FA3010E94BF07882E8618FB2DCC
S1130DC0FF773F2E36FE0DC0232D2E7FA22E8914D1
S1130DD058F434FE0BC032FC09C0832D8E7EA82E3D
S1130DE005C0B82CA32C03C0B82C01C0B92CA4FE98
S1130DF00FC0FE01E80DF11D8081803321F49A2D8E
S1130E00997EA92E09C0A2FE06C0B394B39404C06F
S1130E108A2D867809F0B394A3FC11C0A0FE06C005
S1130E20B21488F4280C922C9B180EC0B21460F4EF
S1130E30B60180E290E00E948307B394F7CFB21426
S1130E4018F42B1802C0982C212CA4FE10C0B60153
S1130E5080E390E00E948307A2FE17C0A1FC03C0B8
S1130E6088E790E002C088E590E0B6010CC08A2DC6
S1130E70867859F0A1FE02C08BE201C080E2A7FC93
S1130E808DE2B60190E00E948307891438F4B6011C
S1130E9080E390E00E9483079A94F7CF8A94F30149
S1130EA0E80DF11D8081B60190E00E948307811056
S1130EB0F5CF222009F442CEB60180E290E00E94F0
S1130EC083072A94F6CFF6018681978102C08FEFBB
S1130ED09FEF2B96E2E10C943908FC0105906150D8
S1130EE070400110D8F7809590958E0F9F1F08953C
S1130EF0FC016150704001900110D8F780959095E5
S1130F008E0F9F1F08950F931F93CF93DF93FB01C1
S1130F10238121FD03C08FEF9FEF2CC022FF16C059
S1130F2046815781248135814217530744F4A081B7
S1130F30B1819D012F5F3F4F318320838C932681A4
S1130F4037812F5F3F4F3783268314C08B01EC0119
S1130F50FB010084F185E02D0995892BE1F6D80188
S1130F6016968D919C911797019617969C938E9344
S1130F701697CE01DF91CF911F910F910895FA0139
S1130F80AA27283051F1203181F1E8946F936E7FC4
S1130F906E5F7F4F8F4F9F4FAF4FB1E03ED0B4E0B5
S1130FA03CD0670F781F891F9A1FA11D680F791FF6
S1130FB08A1F911DA11D6A0F711D811D911DA11D07
S1130FC020D009F468943F912AE0269F1124301917
S1130FD0305D3193DEF6CF010895462F4770405DB2
S1130FE04193B3E00FD0C9F7F6CF462F4F70405D61
S1130FF04A3318F0495D31FD4052419302D0A9F7BC
S1131000EACFB4E0A6959795879577956795BA95B5
S1131010C9F700976105710508959B01AC010A2E7B
S113102006945795479537952795BA95C9F7620F52
S1131030731F841F951FA01D08952F923F924F92F6
S11310405F926F927F928F929F92AF92BF92CF9254
S1131050DF92EF92FF920F931F93CF93DF93CDB75D
S1131060DEB7CA1BDB0B0FB6F894DEBF0FBECDBFD5
S113107009942A88398848885F846E847D848C84A6
S11310809B84AA84B984C884DF80EE80FD800C81AF
S11310901B81AA81B981CE0FD11D0FB6F894DEBF92
S10F10A00FBECDBFED010895F894FFCF02
S11310AC10020200202054454D50455241545552D3
S11310BC450020202020202025303275204300209C
S11310CC20202048554D49444954590020202020C3
S11310DC202025303275202525002020534554200E
S11310EC54454D5020002020202020202575000040
S9030000FC
