:100000000C943E000C945B000C945B000C945B0021
:100010000C945B000C945B000C945B000C945B00F4
:100020000C945B000C945B000C945B000C945B00E4
:100030000C945B000C94A0010C945B000C945B008E
:100040000C945B000C945B000C945B000C945B00C4
:100050000C945B000C945B000C945B000C945B00B4
:100060000C945B000C945B000C945B000C945B00A4
:100070000C945B000C945B000C945B0011241FBE7D
:10008000CFEFD8E0DEBFCDBF11E0A0E0B1E0ECECF7
:10009000F5E002C005900D92AE31B107D9F721E02D
:1000A000AEE1B1E001C01D92A232B207E1F70E94B9
:1000B00062020C94E4020C94000087B1806487B95A
:1000C000089587B18F7B87B988B1806488B9089516
:1000D00088B18F7B88B9089588B1806488B9089504
:1000E00086B186FB882780F908951F93CF93DF930D
:1000F000182FEB0107C0209759F0219782E08A95CD
:10010000F1F700C00E9470008113F5CF81E001C0BB
:1001100080E0DF91CF911F910895CF93DF93EC01A1
:1001200064E670E081E00E947500882391F08AE621
:100130008A95F1F700C00E94700091E0811101C022
:1001400090E0988364E670E080E00E947500811181
:1001500081E0DF91CF910895EF92FF921F93CF93AB
:10016000DF931F92CDB7DEB77C01FC01108210E057
:100170000DC0CE0101960E948D00882351F0F70139
:100180008081880F9981892B80831F5F183088F3C5
:1001900081E00F90DF91CF911F91FF90EF90089534
:1001A0000E945D000E9468008FE39CE90197F1F7CF
:1001B00000C000000E946C0090E59A95F1F70E9443
:1001C000610081E0089568EC70E080E00E947500B5
:1001D000882381F066E970E081E00E947500882341
:1001E00059F066E970E080E00E947500811106C058
:1001F00083E0089581E0089582E0089584E0089501
:1002000087B18F7B87B988B1806488B90895CF9210
:10021000DF92EF92FF920F931F93CF93DF9300D063
:1002200000D01F92CDB7DEB76C017B010E94D000D9
:10023000882329F10E94E300182F843011F500E093
:100240000BC081E090E08C0F9D1F800F911D0E94DC
:10025000AC008823C1F00F5F053098F339818A81A3
:100260002B819C81830F820F890F9D8189130CC084
:10027000F60130838B81F701808310E005C011E027
:1002800003C012E001C013E0812F0F900F900F9078
:100290000F900F90DF91CF911F910F91FF90EF90F2
:1002A000DF90CF90089581B1836F81B90E940A02D7
:1002B000089522B130E1839FC00111242F70822B59
:1002C00082B9089582B1816082B9089582B18E7F2A
:1002D00082B9089582B1826082B9089582B18D7F1A
:1002E00082B908950F931F9308C08FEC97E0019790
:1002F000F1F700C00000C901B8018B019C01015059
:10030000110921093109672B682B692B71F71F919E
:100310000F9108950F931F9306C082E08A95F1F71D
:1003200000C0C901B8018B019C01015011092109CC
:100330003109672B682B692B81F71F910F91089565
:100340001F920F920FB60F9211248F939F93AF932A
:10035000BF9380911E0190911F01A0912001B09147
:1003600021010196A11DB11D80931E0190931F01D3
:10037000A0932001B0932101BF91AF919F918F91E4
:100380000F900FBE0F901F9018950E946A0161E0B8
:1003900070E080E090E00E948A010E946E0162E3BA
:1003A00070E080E090E00E948A0108958F700E94C2
:1003B00059010E94C5010895CF93DF93C82FD62F0E
:1003C000662319F00E94620102C00E9466018C2F10
:1003D00082958F700E94D6018C2F8F700E94D6015B
:1003E000D11109C0C150C23030F462E070E080E049
:1003F00090E00E947201DF91CF91089560E00E9429
:10040000DC01089561E00E94DC01089581E00E9412
:10041000FE01089568E270E080E090E00E947201C1
:100420000E9466010E946E0183E00E94D60165E091
:1004300070E080E090E00E94720183E00E94D601AB
:1004400066E970E080E090E00E948A0183E00E940B
:10045000D60166E970E080E090E00E948A0182E0C7
:100460000E94D60166E970E080E090E00E948A0177
:1004700088E20E94FE0188E00E94FE010E940602BE
:1004800086E00E94FE018CE00E94FE0108950E9419
:1004900002020895CF93DF93EC01892B21F406C06B
:1004A00021960E94470288818111FACFDF91CF9176
:1004B0000895803108F08FE06111805C80680E94AF
:1004C000FE010895CF93DF9300D0CDB7DEB70E9431
:1004D00053010E9400012FEF89E698E121508040EE
:1004E0009040E1F700C0000060E080E00E94590207
:1004F00080E091E00E944A02F894BE016E5F7F4F57
:10050000CE0101960E940701182F789461E080E0E7
:100510000E945902111142C08BE091E00E944A02F0
:1005200089811DEC819F812D112486958695869564
:10053000805D0E9447028981819F912D11249695AB
:1005400096959695990F292F220F220F920F891BAE
:10055000805D0E9447028EE091E00E944A028A81FB
:10056000819F812D1124869586958695805D0E94B8
:1005700047028A81819F112D112416951695169593
:10058000110F912F990F990F190F811B805D0E94F8
:1005900047028AE191E00E944A020CC082E191E0A8
:1005A0000E944A0280E3810F0E94470287E191E0A6
:1005B0000E944A022FEF83ED90E32150804090404B
:0C05C000E1F700C0000098CFF894FFCFD6
:1005CC004448543131205445535400483A00205487
:0E05DC003A004552523A0020202020202000F4
:00000001FF
